{
  "contractName": "Copyright",
  "abi": [
    {
      "inputs": [],
      "payable": false,
      "stateMutability": "nonpayable",
      "type": "constructor"
    },
    {
      "constant": true,
      "inputs": [],
      "name": "owner",
      "outputs": [
        {
          "internalType": "address",
          "name": "",
          "type": "address"
        }
      ],
      "payable": false,
      "stateMutability": "view",
      "type": "function"
    },
    {
      "constant": false,
      "inputs": [
        {
          "internalType": "address",
          "name": "newOwner",
          "type": "address"
        }
      ],
      "name": "transferOwnership",
      "outputs": [],
      "payable": false,
      "stateMutability": "nonpayable",
      "type": "function"
    },
    {
      "constant": false,
      "inputs": [
        {
          "internalType": "string",
          "name": "name",
          "type": "string"
        },
        {
          "internalType": "string",
          "name": "title",
          "type": "string"
        },
        {
          "internalType": "string",
          "name": "id",
          "type": "string"
        },
        {
          "internalType": "string",
          "name": "info",
          "type": "string"
        }
      ],
      "name": "saveinfo",
      "outputs": [],
      "payable": false,
      "stateMutability": "nonpayable",
      "type": "function"
    },
    {
      "constant": false,
      "inputs": [],
      "name": "deleteinfo",
      "outputs": [],
      "payable": false,
      "stateMutability": "nonpayable",
      "type": "function"
    },
    {
      "constant": true,
      "inputs": [],
      "name": "selectAll",
      "outputs": [
        {
          "internalType": "string",
          "name": "name",
          "type": "string"
        },
        {
          "internalType": "string",
          "name": "title",
          "type": "string"
        },
        {
          "internalType": "string",
          "name": "id",
          "type": "string"
        },
        {
          "internalType": "string",
          "name": "info",
          "type": "string"
        },
        {
          "internalType": "uint8",
          "name": "status",
          "type": "uint8"
        }
      ],
      "payable": false,
      "stateMutability": "view",
      "type": "function"
    },
    {
      "constant": false,
      "inputs": [],
      "name": "update",
      "outputs": [],
      "payable": false,
      "stateMutability": "nonpayable",
      "type": "function"
    }
  ],
  "bytecode": "0x608060405234801561001057600080fd5b50336000806101000a81548173ffffffffffffffffffffffffffffffffffffffff021916908373ffffffffffffffffffffffffffffffffffffffff160217905550610cca806100606000396000f3fe608060405234801561001057600080fd5b50600436106100625760003560e01c8063857cb0eb146100675780638d64b4821461023b5780638da5cb5b146104bb578063a2e6204514610505578063a3337bec1461050f578063f2fde38b14610519575b600080fd5b61006f61055d565b60405180806020018060200180602001806020018660ff1660ff16815260200185810385528a818151815260200191508051906020019080838360005b838110156100c75780820151818401526020810190506100ac565b50505050905090810190601f1680156100f45780820380516001836020036101000a031916815260200191505b50858103845289818151815260200191508051906020019080838360005b8381101561012d578082015181840152602081019050610112565b50505050905090810190601f16801561015a5780820380516001836020036101000a031916815260200191505b50858103835288818151815260200191508051906020019080838360005b83811015610193578082015181840152602081019050610178565b50505050905090810190601f1680156101c05780820380516001836020036101000a031916815260200191505b50858103825287818151815260200191508051906020019080838360005b838110156101f95780820151818401526020810190506101de565b50505050905090810190601f1680156102265780820380516001836020036101000a031916815260200191505b50995050505050505050505060405180910390f35b6104b96004803603608081101561025157600080fd5b810190808035906020019064010000000081111561026e57600080fd5b82018360208201111561028057600080fd5b803590602001918460018302840111640100000000831117156102a257600080fd5b91908080601f016020809104026020016040519081016040528093929190818152602001838380828437600081840152601f19601f8201169050808301925050505050505091929192908035906020019064010000000081111561030557600080fd5b82018360208201111561031757600080fd5b8035906020019184600183028401116401000000008311171561033957600080fd5b91908080601f016020809104026020016040519081016040528093929190818152602001838380828437600081840152601f19601f8201169050808301925050505050505091929192908035906020019064010000000081111561039c57600080fd5b8201836020820111156103ae57600080fd5b803590602001918460018302840111640100000000831117156103d057600080fd5b91908080601f016020809104026020016040519081016040528093929190818152602001838380828437600081840152601f19601f8201169050808301925050505050505091929192908035906020019064010000000081111561043357600080fd5b82018360208201111561044557600080fd5b8035906020019184600183028401116401000000008311171561046757600080fd5b91908080601f016020809104026020016040519081016040528093929190818152602001838380828437600081840152601f19601f820116905080830192505050505050509192919290505050610865565b005b6104c3610946565b604051808273ffffffffffffffffffffffffffffffffffffffff1673ffffffffffffffffffffffffffffffffffffffff16815260200191505060405180910390f35b61050d61096b565b005b61051761099d565b005b61055b6004803603602081101561052f57600080fd5b81019080803573ffffffffffffffffffffffffffffffffffffffff169060200190929190505050610ab6565b005b6060806060806000600160008081526020019081526020016000206000018054600181600116156101000203166002900480601f01602080910402602001604051908101604052809291908181526020018280546001816001161561010002031660029004801561060f5780601f106105e45761010080835404028352916020019161060f565b820191906000526020600020905b8154815290600101906020018083116105f257829003601f168201915b50505050509450600160008081526020019081526020016000206001018054600181600116156101000203166002900480601f0160208091040260200160405190810160405280929190818152602001828054600181600116156101000203166002900480156106c05780601f10610695576101008083540402835291602001916106c0565b820191906000526020600020905b8154815290600101906020018083116106a357829003601f168201915b50505050509350600160008081526020019081526020016000206002018054600181600116156101000203166002900480601f0160208091040260200160405190810160405280929190818152602001828054600181600116156101000203166002900480156107715780601f1061074657610100808354040283529160200191610771565b820191906000526020600020905b81548152906001019060200180831161075457829003601f168201915b50505050509250600160008081526020019081526020016000206003018054600181600116156101000203166002900480601f0160208091040260200160405190810160405280929190818152602001828054600181600116156101000203166002900480156108225780601f106107f757610100808354040283529160200191610822565b820191906000526020600020905b81548152906001019060200180831161080557829003601f168201915b505050505091506001600080815260200190815260200160002060040160009054906101000a900460ff1690508484848484945094509450945094509091929394565b8360016000808152602001908152602001600020600001908051906020019061088f929190610bf0565b50826001600080815260200190815260200160002060010190805190602001906108ba929190610bf0565b50816001600080815260200190815260200160002060020190805190602001906108e5929190610bf0565b5080600160008081526020019081526020016000206003019080519060200190610910929190610bf0565b50600180600080815260200190815260200160002060040160006101000a81548160ff021916908360ff16021790555050505050565b6000809054906101000a900473ffffffffffffffffffffffffffffffffffffffff1681565b60026001600080815260200190815260200160002060040160006101000a81548160ff021916908360ff160217905550565b604051806020016040528060008152506001600080815260200190815260200160002060000190805190602001906109d6929190610bf0565b5060405180602001604052806000815250600160008081526020019081526020016000206001019080519060200190610a10929190610bf0565b5060405180602001604052806000815250600160008081526020019081526020016000206002019080519060200190610a4a929190610bf0565b5060405180602001604052806000815250600160008081526020019081526020016000206003019080519060200190610a84929190610bf0565b50600180600080815260200190815260200160002060040160006101000a81548160ff021916908360ff160217905550565b6000809054906101000a900473ffffffffffffffffffffffffffffffffffffffff1673ffffffffffffffffffffffffffffffffffffffff163373ffffffffffffffffffffffffffffffffffffffff1614610b78576040517f08c379a00000000000000000000000000000000000000000000000000000000081526004018080602001828103825260188152602001807f73656e646572206973206e6f7420617574686f72697a6564000000000000000081525060200191505060405180910390fd5b600073ffffffffffffffffffffffffffffffffffffffff168173ffffffffffffffffffffffffffffffffffffffff1614610bed57806000806101000a81548173ffffffffffffffffffffffffffffffffffffffff021916908373ffffffffffffffffffffffffffffffffffffffff1602179055505b50565b828054600181600116156101000203166002900490600052602060002090601f016020900481019282601f10610c3157805160ff1916838001178555610c5f565b82800160010185558215610c5f579182015b82811115610c5e578251825591602001919060010190610c43565b5b509050610c6c9190610c70565b5090565b610c9291905b80821115610c8e576000816000905550600101610c76565b5090565b9056fea265627a7a72315820d470f57547fbbc8b4bccb97081181f9f22b0d746fb94a01d3b9bbbfc0654ea7564736f6c63430005100032",
  "source": "pragma solidity >=0.4.21 <0.6.0;\n \n/**\n * owned是合约的管理者\n */\ncontract owned {\n    address public owner;\n \n    /**\n     * 初台化构造函数\n     */\n    constructor() public {\n        owner = msg.sender;\n    }\n \n    /**\n     * 判断当前合约调用者是否是合约的所有者\n     */\n    modifier onlyOwner {\n        require( msg.sender == owner,\n        \"sender is not authorized\");\n        _;\n    }\n \n    /**\n     * 合约的所有者指派一个新的管理员\n     * @param  newOwner address 新的管理员帐户地址\n     */\n    function transferOwnership(address newOwner) public onlyOwner{\n        if (newOwner != address(0)) {\n            owner = newOwner;\n        }\n    }\n}\n\ncontract Copyright is owned{\n\n    //属性\n    struct Copyrightinfo {\n        string name;//登记姓名\n        string title;    //著作标题\n        string id;  //身份证号\n        string info;  //说明\n        uint8  status;  //1是待审核，2是审核通过\n    }\n\n    //记录所有数据映射\n    mapping (uint => Copyrightinfo) crinfo;\n\n    constructor() public{}\n\n\n    //保存\n    function saveinfo(string memory name ,string memory title,string memory id,string memory info) public{        \n        crinfo[0].name = name;\n        crinfo[0].title=title;\n        crinfo[0].id=id;\n        crinfo[0].info=info;\n        crinfo[0].status=1;\n    }\n\n    //清空数据\n    function deleteinfo() public{\n        crinfo[0].name = \"\";\n        crinfo[0].title=\"\";\n        crinfo[0].id=\"\";\n        crinfo[0].info=\"\";\n        crinfo[0].status=1;\n    }\n \n    //查询数据\n    function selectAll() public view returns (string memory name ,string memory title,string memory id,string memory info,uint8 status){\n        name=crinfo[0].name;\n        title=crinfo[0].title;\n        id=crinfo[0].id;\n        info=crinfo[0].info;  \n        status=crinfo[0].status;\n        return (name,title,id,info,status);\n    }\n\n    //审核\n    function update() public{\n        crinfo[0].status=2;\n    }\n\n}\n\n",
  "sourcePath": "/Users/yongyang/work/project/demo_contract_copyright/contracts/Copyright.sol",
  "compiler": {
    "name": "solc",
    "version": "0.5.16+commit.9c3226ce.Emscripten.clang"
  },
  "schemaVersion": "3.2.0",
  "updatedAt": "2020-07-14T01:28:38.699Z",
  "networkType": "ethereum",
  "devdoc": {
    "methods": {
      "transferOwnership(address)": {
        "params": {
          "newOwner": "address 新的管理员帐户地址"
        }
      }
    }
  },
  "userdoc": {
    "methods": {
      "transferOwnership(address)": {
        "notice": "合约的所有者指派一个新的管理员"
      }
    }
  }
}